{
  "contractName": "Subscriptions",
  "abi": [
    {
      "constant": true,
      "inputs": [],
      "name": "serviceAddress",
      "outputs": [
        {
          "name": "",
          "type": "address"
        }
      ],
      "payable": false,
      "stateMutability": "view",
      "type": "function"
    },
    {
      "inputs": [],
      "payable": false,
      "stateMutability": "nonpayable",
      "type": "constructor"
    },
    {
      "anonymous": false,
      "inputs": [
        {
          "indexed": false,
          "name": "subscriber",
          "type": "address"
        },
        {
          "indexed": false,
          "name": "subscribedTo",
          "type": "address"
        }
      ],
      "name": "Subscribed",
      "type": "event"
    },
    {
      "anonymous": false,
      "inputs": [
        {
          "indexed": false,
          "name": "subscriber",
          "type": "address"
        },
        {
          "indexed": false,
          "name": "subscribedTo",
          "type": "address"
        }
      ],
      "name": "Unsubscribed",
      "type": "event"
    },
    {
      "anonymous": false,
      "inputs": [
        {
          "indexed": false,
          "name": "subscriber",
          "type": "address"
        },
        {
          "indexed": false,
          "name": "deposit",
          "type": "uint256"
        }
      ],
      "name": "Deposited",
      "type": "event"
    },
    {
      "anonymous": false,
      "inputs": [
        {
          "indexed": false,
          "name": "producer",
          "type": "address"
        },
        {
          "indexed": false,
          "name": "subsribers",
          "type": "address[]"
        },
        {
          "indexed": false,
          "name": "payout",
          "type": "uint256"
        },
        {
          "indexed": false,
          "name": "service",
          "type": "uint256"
        }
      ],
      "name": "Charged",
      "type": "event"
    },
    {
      "constant": false,
      "inputs": [],
      "name": "deposit",
      "outputs": [],
      "payable": true,
      "stateMutability": "payable",
      "type": "function"
    },
    {
      "constant": false,
      "inputs": [
        {
          "name": "subscribeTo",
          "type": "address"
        }
      ],
      "name": "subscribe",
      "outputs": [],
      "payable": false,
      "stateMutability": "nonpayable",
      "type": "function"
    },
    {
      "constant": false,
      "inputs": [
        {
          "name": "unsubscribeFrom",
          "type": "address"
        }
      ],
      "name": "unsubscribe",
      "outputs": [],
      "payable": false,
      "stateMutability": "nonpayable",
      "type": "function"
    },
    {
      "constant": false,
      "inputs": [],
      "name": "charge",
      "outputs": [],
      "payable": false,
      "stateMutability": "nonpayable",
      "type": "function"
    },
    {
      "constant": true,
      "inputs": [
        {
          "name": "account",
          "type": "address"
        }
      ],
      "name": "getSubscriptions",
      "outputs": [
        {
          "name": "",
          "type": "address[]"
        }
      ],
      "payable": false,
      "stateMutability": "view",
      "type": "function"
    },
    {
      "constant": true,
      "inputs": [
        {
          "name": "account",
          "type": "address"
        }
      ],
      "name": "getBalance",
      "outputs": [
        {
          "name": "",
          "type": "uint256"
        }
      ],
      "payable": false,
      "stateMutability": "view",
      "type": "function"
    },
    {
      "constant": true,
      "inputs": [
        {
          "name": "account",
          "type": "address"
        }
      ],
      "name": "getSubscribers",
      "outputs": [
        {
          "name": "",
          "type": "address[]"
        }
      ],
      "payable": false,
      "stateMutability": "view",
      "type": "function"
    },
    {
      "constant": true,
      "inputs": [
        {
          "name": "account",
          "type": "address"
        }
      ],
      "name": "getLastPayment",
      "outputs": [
        {
          "name": "",
          "type": "uint256"
        }
      ],
      "payable": false,
      "stateMutability": "view",
      "type": "function"
    }
  ],
  "bytecode": "0x606060405267013fbe85edc90000600155662386f26fc1000060025562093a80600355341561002d57600080fd5b336000806101000a81548173ffffffffffffffffffffffffffffffffffffffff021916908373ffffffffffffffffffffffffffffffffffffffff1602179055506111b28061007c6000396000f300606060405260043610610099576000357c0100000000000000000000000000000000000000000000000000000000900463ffffffff16806307e7080a1461009e57806341a7726a1461012c57806355161913146101655780635d6a44131461017a5780637262561c146102085780638d5b87b614610241578063a06bdde514610296578063d0e30db0146102e3578063f8b2cb4f146102ed575b600080fd5b34156100a957600080fd5b6100d5600480803573ffffffffffffffffffffffffffffffffffffffff1690602001909190505061033a565b6040518080602001828103825283818151815260200191508051906020019060200280838360005b838110156101185780820151818401526020810190506100fd565b505050509050019250505060405180910390f35b341561013757600080fd5b610163600480803573ffffffffffffffffffffffffffffffffffffffff16906020019091905050610410565b005b341561017057600080fd5b61017861078c565b005b341561018557600080fd5b6101b1600480803573ffffffffffffffffffffffffffffffffffffffff16906020019091905050610a6a565b6040518080602001828103825283818151815260200191508051906020019060200280838360005b838110156101f45780820151818401526020810190506101d9565b505050509050019250505060405180910390f35b341561021357600080fd5b61023f600480803573ffffffffffffffffffffffffffffffffffffffff16906020019091905050610b40565b005b341561024c57600080fd5b610254610de9565b604051808273ffffffffffffffffffffffffffffffffffffffff1673ffffffffffffffffffffffffffffffffffffffff16815260200191505060405180910390f35b34156102a157600080fd5b6102cd600480803573ffffffffffffffffffffffffffffffffffffffff16906020019091905050610e0e565b6040518082815260200191505060405180910390f35b6102eb610e5a565b005b34156102f857600080fd5b610324600480803573ffffffffffffffffffffffffffffffffffffffff16906020019091905050610f1d565b6040518082815260200191505060405180910390f35b610342611121565b600460008373ffffffffffffffffffffffffffffffffffffffff1673ffffffffffffffffffffffffffffffffffffffff16815260200190815260200160002060000180548060200260200160405190810160405280929190818152602001828054801561040457602002820191906000526020600020905b8160009054906101000a900473ffffffffffffffffffffffffffffffffffffffff1673ffffffffffffffffffffffffffffffffffffffff16815260200190600101908083116103ba575b50505050509050919050565b6000806000806000808673ffffffffffffffffffffffffffffffffffffffff163373ffffffffffffffffffffffffffffffffffffffff161415151561045457600080fd5b600560003373ffffffffffffffffffffffffffffffffffffffff1673ffffffffffffffffffffffffffffffffffffffff168152602001908152602001600020955060009450600093505b8560010180549050841015610533578673ffffffffffffffffffffffffffffffffffffffff1686600101858154811015156104d557fe5b906000526020600020900160009054906101000a900473ffffffffffffffffffffffffffffffffffffffff1673ffffffffffffffffffffffffffffffffffffffff1614156105265760019450610533565b838060010194505061049e565b8415156105a0578560010180548060010182816105509190611135565b9160005260206000209001600089909190916101000a81548173ffffffffffffffffffffffffffffffffffffffff021916908373ffffffffffffffffffffffffffffffffffffffff160217905550505b600460008873ffffffffffffffffffffffffffffffffffffffff1673ffffffffffffffffffffffffffffffffffffffff168152602001908152602001600020925060009150600090505b826000018054905081101561067f573373ffffffffffffffffffffffffffffffffffffffff16836000018581548110151561062157fe5b906000526020600020900160009054906101000a900473ffffffffffffffffffffffffffffffffffffffff1673ffffffffffffffffffffffffffffffffffffffff161415610672576001915061067f565b80806001019150506105ea565b8115156106ec5782600001805480600101828161069c9190611135565b9160005260206000209001600033909190916101000a81548173ffffffffffffffffffffffffffffffffffffffff021916908373ffffffffffffffffffffffffffffffffffffffff160217905550505b7f5af76814d21ef4a656d75bdbdb9cc3efa85af5efca9dbca0397824217d9344b73388604051808373ffffffffffffffffffffffffffffffffffffffff1673ffffffffffffffffffffffffffffffffffffffff1681526020018273ffffffffffffffffffffffffffffffffffffffff1673ffffffffffffffffffffffffffffffffffffffff1681526020019250505060405180910390a150505050505050565b600080600080600080600460003373ffffffffffffffffffffffffffffffffffffffff1673ffffffffffffffffffffffffffffffffffffffff168152602001908152602001600020935042600354856001015401111515156107ed57600080fd5b600092505b83600001805490508310156108c457836000018381548110151561081257fe5b906000526020600020900160009054906101000a900473ffffffffffffffffffffffffffffffffffffffff169150600560008373ffffffffffffffffffffffffffffffffffffffff1673ffffffffffffffffffffffffffffffffffffffff168152602001908152602001600020905060015481600001541015156108b75760025460015401816000016000828254039250508190555060015486019550600254850194505b82806001019350506107f2565b4284600101819055503373ffffffffffffffffffffffffffffffffffffffff166108fc879081150290604051600060405180830381858888f19350505050151561090d57600080fd5b6000809054906101000a900473ffffffffffffffffffffffffffffffffffffffff1673ffffffffffffffffffffffffffffffffffffffff166108fc6002549081150290604051600060405180830381858888f19350505050151561097057600080fd5b7f4237c7cdeff068180ec8d9fbb4af0e35eeaf4919091de787ac1fb43fd53182f833856000018888604051808573ffffffffffffffffffffffffffffffffffffffff1673ffffffffffffffffffffffffffffffffffffffff168152602001806020018481526020018381526020018281038252858181548152602001915080548015610a5157602002820191906000526020600020905b8160009054906101000a900473ffffffffffffffffffffffffffffffffffffffff1673ffffffffffffffffffffffffffffffffffffffff1681526020019060010190808311610a07575b50509550505050505060405180910390a1505050505050565b610a72611121565b600560008373ffffffffffffffffffffffffffffffffffffffff1673ffffffffffffffffffffffffffffffffffffffff168152602001908152602001600020600101805480602002602001604051908101604052809291908181526020018280548015610b3457602002820191906000526020600020905b8160009054906101000a900473ffffffffffffffffffffffffffffffffffffffff1673ffffffffffffffffffffffffffffffffffffffff1681526020019060010190808311610aea575b50505050509050919050565b6000806000808473ffffffffffffffffffffffffffffffffffffffff163373ffffffffffffffffffffffffffffffffffffffff1614151515610b8157600080fd5b600560003373ffffffffffffffffffffffffffffffffffffffff1673ffffffffffffffffffffffffffffffffffffffff1681526020019081526020016000209350600092505b8360010180549050831015610c66578473ffffffffffffffffffffffffffffffffffffffff168460010184815481101515610bfe57fe5b906000526020600020900160009054906101000a900473ffffffffffffffffffffffffffffffffffffffff1673ffffffffffffffffffffffffffffffffffffffff161415610c5957610c538385600101610f69565b50610c66565b8280600101935050610bc7565b600460008673ffffffffffffffffffffffffffffffffffffffff1673ffffffffffffffffffffffffffffffffffffffff1681526020019081526020016000209150600090505b8160000180549050811015610d4b573373ffffffffffffffffffffffffffffffffffffffff168260000184815481101515610ce357fe5b906000526020600020900160009054906101000a900473ffffffffffffffffffffffffffffffffffffffff1673ffffffffffffffffffffffffffffffffffffffff161415610d3e57610d388383600001610f69565b50610d4b565b8080600101915050610cac565b7f7773c30acd0762ed6b4b92a9aa2c6b3c074e29ad93b334cbed8ba807c596f13a3386604051808373ffffffffffffffffffffffffffffffffffffffff1673ffffffffffffffffffffffffffffffffffffffff1681526020018273ffffffffffffffffffffffffffffffffffffffff1673ffffffffffffffffffffffffffffffffffffffff1681526020019250505060405180910390a15050505050565b6000809054906101000a900473ffffffffffffffffffffffffffffffffffffffff1681565b6000600460008373ffffffffffffffffffffffffffffffffffffffff1673ffffffffffffffffffffffffffffffffffffffff168152602001908152602001600020600101549050919050565b6000600560003373ffffffffffffffffffffffffffffffffffffffff1673ffffffffffffffffffffffffffffffffffffffff16815260200190815260200160002090503481600001600082825401925050819055507f2da466a7b24304f47e87fa2e1e5a81b9831ce54fec19055ce277ca2f39ba42c43334604051808373ffffffffffffffffffffffffffffffffffffffff1673ffffffffffffffffffffffffffffffffffffffff1681526020018281526020019250505060405180910390a150565b6000600560008373ffffffffffffffffffffffffffffffffffffffff1673ffffffffffffffffffffffffffffffffffffffff168152602001908152602001600020600001549050919050565b610f71611121565b6000828054905084101515610f855761111a565b8390505b6001838054905003811015611039578260018201815481101515610fa957fe5b906000526020600020900160009054906101000a900473ffffffffffffffffffffffffffffffffffffffff168382815481101515610fe357fe5b906000526020600020900160006101000a81548173ffffffffffffffffffffffffffffffffffffffff021916908373ffffffffffffffffffffffffffffffffffffffff1602179055508080600101915050610f89565b82600184805490500381548110151561104e57fe5b906000526020600020900160006101000a81549073ffffffffffffffffffffffffffffffffffffffff0219169055828054809190600190036110909190611135565b508280548060200260200160405190810160405280929190818152602001828054801561111257602002820191906000526020600020905b8160009054906101000a900473ffffffffffffffffffffffffffffffffffffffff1673ffffffffffffffffffffffffffffffffffffffff16815260200190600101908083116110c8575b505050505091505b5092915050565b602060405190810160405280600081525090565b81548183558181151161115c5781836000526020600020918201910161115b9190611161565b5b505050565b61118391905b8082111561117f576000816000905550600101611167565b5090565b905600a165627a7a72305820e555ff830f5bd522623e47ed278da8c9fba5d782ab79106ab802be7a4d2acba30029",
  "source": "pragma solidity ^0.4.0;\r\n\r\ncontract Subscriptions {\r\n  // service address\r\n  address public serviceAddress;\r\n\r\n  // ETH charge per week, in Gwei\r\n  uint weeklyCharge = 90 finney;\r\n\r\n  // Service charge is 10%\r\n  uint serviceCharge = 10 finney;\r\n\r\n  // week in unix time\r\n  uint week = 604800;\r\n\r\n  // need a struct of Producers\r\n  // Each producer has a public address\r\n  // and a list of their subscribers\r\n  struct Producer {\r\n    address[] subscribers;\r\n    uint lastPayment;\r\n    // TODO: We need to keep track of the last time a subscriber has been charged\r\n    // in order to allow for the most flexible charge system possible \r\n    // where users are charged from the their last payment until now\r\n  }\r\n\r\n  mapping (address => Producer) producers;\r\n\r\n  // Subscriber\r\n  // Each subscriber has a balance\r\n  // and a list of people they are subscribed to\r\n  struct Subscriber {\r\n    uint balance; // defaults to zero\r\n    address[] subscribedTo; // defaults to empty array\r\n  }\r\n\r\n  mapping (address => Subscriber) subscribers;\r\n  \r\n  event Subscribed(address subscriber, address subscribedTo);\r\n  event Unsubscribed(address subscriber, address subscribedTo);\r\n  event Deposited(address subscriber, uint deposit  );\r\n  event Charged(address producer, address[] subsribers, uint payout, uint service);\r\n\r\n\r\n  function Subscriptions() public {\r\n    serviceAddress = msg.sender;\r\n  }\r\n\r\n  // Deposit\r\n  // Allow subscribers to deposit ETH\r\n  // Will be used for weekly payouts\r\n  // Non-refundable\r\n  function deposit() public payable {\r\n    Subscriber storage subscriber = subscribers[msg.sender];\r\n    subscriber.balance += msg.value;\r\n    Deposited(msg.sender, msg.value);\r\n  }\r\n\r\n  // subscribe()\r\n  // Checks if sender is already subscribed to the producer. If they are\r\n  // not they will be added to the array. \r\n  \r\n  // This function execute if the sender and the subscriber are the same\r\n  function subscribe(address subscribeTo) public {\r\n    require(msg.sender != subscribeTo);\r\n    // add subscribeTo address to subscriber if it doesn't exist\r\n    // loop through subscribeTo array and subscribe\r\n    Subscriber storage subscriber = subscribers[msg.sender];\r\n    bool subscribedToExists = false;\r\n    for (uint i = 0; i < subscriber.subscribedTo.length; i++) {\r\n      if (subscriber.subscribedTo[i] == subscribeTo) {\r\n        subscribedToExists = true;\r\n        break;\r\n      }\r\n    }\r\n\r\n    if (!subscribedToExists) {\r\n      subscriber.subscribedTo.push(subscribeTo);\r\n    }\r\n\r\n    // add msg sender address to producer subcribers array\r\n    Producer storage producer = producers[subscribeTo];\r\n    bool subscriberExists = false;\r\n    for (uint j = 0; j < producer.subscribers.length; j++) {\r\n      if (producer.subscribers[i] == msg.sender) {\r\n        subscriberExists = true;\r\n        break;\r\n      }\r\n    }\r\n\r\n    if (!subscriberExists) {\r\n      producer.subscribers.push(msg.sender);\r\n    }\r\n    Subscribed(msg.sender, subscribeTo);\r\n  }\r\n\r\n  // unsubscribe()\r\n  // Checks if sender is already subscribed to the producer. If they are they \r\n  // will be removed from the array. \r\n  // This function will not execute if the sender and the subscriber are the same\r\n  function unsubscribe(address unsubscribeFrom) public {\r\n    require(msg.sender != unsubscribeFrom);\r\n\r\n    // remove unsubscribeFrom address to subscriber if it exists\r\n    Subscriber storage subscriber = subscribers[msg.sender];\r\n    for (uint i = 0; i < subscriber.subscribedTo.length; i++) {\r\n      if (subscriber.subscribedTo[i] == unsubscribeFrom) {\r\n        remove(i, subscriber.subscribedTo);\r\n        break;\r\n      }\r\n    }\r\n\r\n    // add msg sender address to producer subcribers array\r\n    Producer storage producer = producers[unsubscribeFrom];\r\n    for (uint j = 0; j < producer.subscribers.length; j++) {\r\n      if (producer.subscribers[i] == msg.sender) {\r\n        remove(i, producer.subscribers);\r\n        break;\r\n      }\r\n    }\r\n    Unsubscribed(msg.sender, unsubscribeFrom);\r\n  }\r\n\r\n  // charge()\r\n  // Allow contract to be executed by producer in order to collect weekly income.\r\n  // Slightly cumbersome user experience. Could allow automation for contract to be executed weekly on\r\n  // the producers behalf?\r\n  function charge() external {\r\n    uint payout;\r\n    uint service;\r\n\r\n    // only allow a producer to call the charge function once a week\r\n    Producer storage producer = producers[msg.sender];\r\n    require(producer.lastPayment + week <= now);\r\n\r\n    // calculate payout\r\n    for (uint i = 0; i < producer.subscribers.length; i++) {\r\n      // get subscriber \r\n      address subscriberAddress = producer.subscribers[i];\r\n      Subscriber storage subscriber = subscribers[subscriberAddress];\r\n      //check balance\r\n      if (subscriber.balance >= weeklyCharge) {\r\n        subscriber.balance -= weeklyCharge + serviceCharge;\r\n        payout += weeklyCharge;\r\n        service += serviceCharge;\r\n      } \r\n    }\r\n    // send total ETH to producer address\r\n    producer.lastPayment = now;\r\n    msg.sender.transfer(payout);\r\n    serviceAddress.transfer(serviceCharge);\r\n    Charged(msg.sender, producer.subscribers, payout, service);\r\n  }\r\n\r\n  // getSubscriptions(account) public constant\r\n  // Allow users to see what subscriptions they have\r\n  function getSubscriptions(address account) public constant returns (address[]) {\r\n    return subscribers[account].subscribedTo;\r\n  }\r\n\r\n  // getBalance(account) public constant\r\n  // Allow users to see what their balance is\r\n  function getBalance(address account) public constant returns (uint) {\r\n    return subscribers[account].balance;\r\n  }\r\n\r\n  // getSubscribers(account) public constant\r\n  // Allow users to see what subscribers they have\r\n  function getSubscribers(address account) public constant returns (address[]) {\r\n    return producers[account].subscribers;\r\n  }\r\n\r\n  // getLastPayment(account) public constant\r\n  // Allow users to see what time they last collected payment\r\n  function getLastPayment(address account) public constant returns (uint) {\r\n    return producers[account].lastPayment;\r\n  }\r\n\r\n  function remove(uint index, address[] storage array) private returns(address[]) {\r\n      if (index >= array.length) {\r\n        return;\r\n      }\r\n\r\n      for (uint i = index; i<array.length-1; i++) {\r\n          array[i] = array[i+1];\r\n      }\r\n      delete array[array.length-1];\r\n      array.length--;\r\n      return array;\r\n  }\r\n}",
  "sourcePath": "D:\\Documents\\Projects\\patrecoin\\smart-contracts\\contracts\\Subscriptions.sol",
  "compiler": {
    "name": "solc",
    "version": "0.4.19+commit.c4cbbb05.Emscripten.clang"
  },
  "schemaVersion": "1.0.1",
  "updatedAt": "2018-02-12T01:09:08.687Z"
}