{
  "contractName": "Subscriptions",
  "abi": [
    {
      "constant": true,
      "inputs": [
        {
          "name": "",
          "type": "address"
        }
      ],
      "name": "producers",
      "outputs": [
        {
          "name": "lastPayment",
          "type": "uint256"
        }
      ],
      "payable": false,
      "stateMutability": "view",
      "type": "function"
    },
    {
      "constant": true,
      "inputs": [
        {
          "name": "",
          "type": "address"
        }
      ],
      "name": "subscribers",
      "outputs": [
        {
          "name": "balance",
          "type": "uint256"
        }
      ],
      "payable": false,
      "stateMutability": "view",
      "type": "function"
    },
    {
      "constant": true,
      "inputs": [],
      "name": "serviceAddress",
      "outputs": [
        {
          "name": "",
          "type": "address"
        }
      ],
      "payable": false,
      "stateMutability": "view",
      "type": "function"
    },
    {
      "inputs": [],
      "payable": false,
      "stateMutability": "nonpayable",
      "type": "constructor"
    },
    {
      "anonymous": false,
      "inputs": [
        {
          "indexed": false,
          "name": "subscriber",
          "type": "address"
        },
        {
          "indexed": false,
          "name": "subscribedTo",
          "type": "address"
        }
      ],
      "name": "Subscribed",
      "type": "event"
    },
    {
      "anonymous": false,
      "inputs": [
        {
          "indexed": false,
          "name": "subscriber",
          "type": "address"
        },
        {
          "indexed": false,
          "name": "subscribedTo",
          "type": "address"
        }
      ],
      "name": "Unsubscribed",
      "type": "event"
    },
    {
      "anonymous": false,
      "inputs": [
        {
          "indexed": false,
          "name": "subscriber",
          "type": "address"
        },
        {
          "indexed": false,
          "name": "deposit",
          "type": "uint256"
        }
      ],
      "name": "Deposited",
      "type": "event"
    },
    {
      "anonymous": false,
      "inputs": [
        {
          "indexed": false,
          "name": "producer",
          "type": "address"
        },
        {
          "indexed": false,
          "name": "subsribers",
          "type": "address[]"
        },
        {
          "indexed": false,
          "name": "payout",
          "type": "uint256"
        },
        {
          "indexed": false,
          "name": "service",
          "type": "uint256"
        }
      ],
      "name": "Charged",
      "type": "event"
    },
    {
      "constant": false,
      "inputs": [],
      "name": "deposit",
      "outputs": [],
      "payable": true,
      "stateMutability": "payable",
      "type": "function"
    },
    {
      "constant": false,
      "inputs": [
        {
          "name": "subscribeTo",
          "type": "address"
        }
      ],
      "name": "subscribe",
      "outputs": [],
      "payable": false,
      "stateMutability": "nonpayable",
      "type": "function"
    },
    {
      "constant": false,
      "inputs": [
        {
          "name": "unsubscribeFrom",
          "type": "address"
        }
      ],
      "name": "unsubscribe",
      "outputs": [],
      "payable": false,
      "stateMutability": "nonpayable",
      "type": "function"
    },
    {
      "constant": false,
      "inputs": [],
      "name": "charge",
      "outputs": [],
      "payable": false,
      "stateMutability": "nonpayable",
      "type": "function"
    }
  ],
  "bytecode": "0x60606040526009600155600160025562093a80600355341561002057600080fd5b336000806101000a81548173ffffffffffffffffffffffffffffffffffffffff021916908373ffffffffffffffffffffffffffffffffffffffff160217905550610e798061006f6000396000f300606060405260043610610083576000357c0100000000000000000000000000000000000000000000000000000000900463ffffffff16806326324eff1461008857806341a7726a146100d5578063551619131461010e5780635745ae28146101235780637262561c146101705780638d5b87b6146101a9578063d0e30db0146101fe575b600080fd5b341561009357600080fd5b6100bf600480803573ffffffffffffffffffffffffffffffffffffffff16906020019091905050610208565b6040518082815260200191505060405180910390f35b34156100e057600080fd5b61010c600480803573ffffffffffffffffffffffffffffffffffffffff16906020019091905050610226565b005b341561011957600080fd5b6101216105a2565b005b341561012e57600080fd5b61015a600480803573ffffffffffffffffffffffffffffffffffffffff16906020019091905050610881565b6040518082815260200191505060405180910390f35b341561017b57600080fd5b6101a7600480803573ffffffffffffffffffffffffffffffffffffffff1690602001909190505061089f565b005b34156101b457600080fd5b6101bc610b48565b604051808273ffffffffffffffffffffffffffffffffffffffff1673ffffffffffffffffffffffffffffffffffffffff16815260200191505060405180910390f35b610206610b6d565b005b60046020528060005260406000206000915090508060010154905081565b6000806000806000808673ffffffffffffffffffffffffffffffffffffffff163373ffffffffffffffffffffffffffffffffffffffff161415151561026a57600080fd5b600560003373ffffffffffffffffffffffffffffffffffffffff1673ffffffffffffffffffffffffffffffffffffffff168152602001908152602001600020955060009450600093505b8560010180549050841015610349578673ffffffffffffffffffffffffffffffffffffffff1686600101858154811015156102eb57fe5b906000526020600020900160009054906101000a900473ffffffffffffffffffffffffffffffffffffffff1673ffffffffffffffffffffffffffffffffffffffff16141561033c5760019450610349565b83806001019450506102b4565b8415156103b6578560010180548060010182816103669190610de8565b9160005260206000209001600089909190916101000a81548173ffffffffffffffffffffffffffffffffffffffff021916908373ffffffffffffffffffffffffffffffffffffffff160217905550505b600460008873ffffffffffffffffffffffffffffffffffffffff1673ffffffffffffffffffffffffffffffffffffffff168152602001908152602001600020925060009150600090505b8260000180549050811015610495573373ffffffffffffffffffffffffffffffffffffffff16836000018581548110151561043757fe5b906000526020600020900160009054906101000a900473ffffffffffffffffffffffffffffffffffffffff1673ffffffffffffffffffffffffffffffffffffffff1614156104885760019150610495565b8080600101915050610400565b811515610502578260000180548060010182816104b29190610de8565b9160005260206000209001600033909190916101000a81548173ffffffffffffffffffffffffffffffffffffffff021916908373ffffffffffffffffffffffffffffffffffffffff160217905550505b7f5af76814d21ef4a656d75bdbdb9cc3efa85af5efca9dbca0397824217d9344b73388604051808373ffffffffffffffffffffffffffffffffffffffff1673ffffffffffffffffffffffffffffffffffffffff1681526020018273ffffffffffffffffffffffffffffffffffffffff1673ffffffffffffffffffffffffffffffffffffffff1681526020019250505060405180910390a150505050505050565b600080600080600080600460003373ffffffffffffffffffffffffffffffffffffffff1673ffffffffffffffffffffffffffffffffffffffff1681526020019081526020016000209350426003548560010154011115151561060357600080fd5b600092505b83600001805490508310156106db5783600001600181548110151561062957fe5b906000526020600020900160009054906101000a900473ffffffffffffffffffffffffffffffffffffffff169150600560008373ffffffffffffffffffffffffffffffffffffffff1673ffffffffffffffffffffffffffffffffffffffff168152602001908152602001600020905060015481600001541015156106ce5760025460015401816000016000828254039250508190555060015486019550600254850194505b8280600101935050610608565b4284600101819055503373ffffffffffffffffffffffffffffffffffffffff166108fc879081150290604051600060405180830381858888f19350505050151561072457600080fd5b6000809054906101000a900473ffffffffffffffffffffffffffffffffffffffff1673ffffffffffffffffffffffffffffffffffffffff166108fc6002549081150290604051600060405180830381858888f19350505050151561078757600080fd5b7f4237c7cdeff068180ec8d9fbb4af0e35eeaf4919091de787ac1fb43fd53182f833856000018888604051808573ffffffffffffffffffffffffffffffffffffffff1673ffffffffffffffffffffffffffffffffffffffff16815260200180602001848152602001838152602001828103825285818154815260200191508054801561086857602002820191906000526020600020905b8160009054906101000a900473ffffffffffffffffffffffffffffffffffffffff1673ffffffffffffffffffffffffffffffffffffffff168152602001906001019080831161081e575b50509550505050505060405180910390a1505050505050565b60056020528060005260406000206000915090508060000154905081565b6000806000808473ffffffffffffffffffffffffffffffffffffffff163373ffffffffffffffffffffffffffffffffffffffff16141515156108e057600080fd5b600560003373ffffffffffffffffffffffffffffffffffffffff1673ffffffffffffffffffffffffffffffffffffffff1681526020019081526020016000209350600092505b83600101805490508310156109c5578473ffffffffffffffffffffffffffffffffffffffff16846001018481548110151561095d57fe5b906000526020600020900160009054906101000a900473ffffffffffffffffffffffffffffffffffffffff1673ffffffffffffffffffffffffffffffffffffffff1614156109b8576109b28385600101610c30565b506109c5565b8280600101935050610926565b600460008673ffffffffffffffffffffffffffffffffffffffff1673ffffffffffffffffffffffffffffffffffffffff1681526020019081526020016000209150600090505b8160000180549050811015610aaa573373ffffffffffffffffffffffffffffffffffffffff168260000184815481101515610a4257fe5b906000526020600020900160009054906101000a900473ffffffffffffffffffffffffffffffffffffffff1673ffffffffffffffffffffffffffffffffffffffff161415610a9d57610a978383600001610c30565b50610aaa565b8080600101915050610a0b565b7f7773c30acd0762ed6b4b92a9aa2c6b3c074e29ad93b334cbed8ba807c596f13a3386604051808373ffffffffffffffffffffffffffffffffffffffff1673ffffffffffffffffffffffffffffffffffffffff1681526020018273ffffffffffffffffffffffffffffffffffffffff1673ffffffffffffffffffffffffffffffffffffffff1681526020019250505060405180910390a15050505050565b6000809054906101000a900473ffffffffffffffffffffffffffffffffffffffff1681565b6000600560003373ffffffffffffffffffffffffffffffffffffffff1673ffffffffffffffffffffffffffffffffffffffff16815260200190815260200160002090503481600001600082825401925050819055507f2da466a7b24304f47e87fa2e1e5a81b9831ce54fec19055ce277ca2f39ba42c43334604051808373ffffffffffffffffffffffffffffffffffffffff1673ffffffffffffffffffffffffffffffffffffffff1681526020018281526020019250505060405180910390a150565b610c38610e14565b6000828054905084101515610c4c57610de1565b8390505b6001838054905003811015610d00578260018201815481101515610c7057fe5b906000526020600020900160009054906101000a900473ffffffffffffffffffffffffffffffffffffffff168382815481101515610caa57fe5b906000526020600020900160006101000a81548173ffffffffffffffffffffffffffffffffffffffff021916908373ffffffffffffffffffffffffffffffffffffffff1602179055508080600101915050610c50565b826001848054905003815481101515610d1557fe5b906000526020600020900160006101000a81549073ffffffffffffffffffffffffffffffffffffffff021916905582805480919060019003610d579190610de8565b5082805480602002602001604051908101604052809291908181526020018280548015610dd957602002820191906000526020600020905b8160009054906101000a900473ffffffffffffffffffffffffffffffffffffffff1673ffffffffffffffffffffffffffffffffffffffff1681526020019060010190808311610d8f575b505050505091505b5092915050565b815481835581811511610e0f57818360005260206000209182019101610e0e9190610e28565b5b505050565b602060405190810160405280600081525090565b610e4a91905b80821115610e46576000816000905550600101610e2e565b5090565b905600a165627a7a7230582007e2819f51851287c8c73b88ae633204b7f3c988f573376601f651eac9d63d920029",
  "source": "pragma solidity ^0.4.0;\r\n\r\ncontract Subscriptions {\r\n  // service address\r\n  address public serviceAddress;\r\n\r\n  // ETH charge per week, in Gwei\r\n  uint weeklyCharge = 9;\r\n\r\n  // Service charge is 10%\r\n  uint serviceCharge = 1;\r\n\r\n  // week in unix time\r\n  uint week = 604800;\r\n\r\n  // need a struct of Producers\r\n  // Each producer has a public address\r\n  // and a list of their subscribers\r\n  struct Producer {\r\n    address[] subscribers;\r\n    uint lastPayment;\r\n  }\r\n\r\n  mapping (address => Producer) public producers;\r\n\r\n  // Subscriber\r\n  // Each subscriber has a balance\r\n  // and a list of people they are subscribed to\r\n  struct Subscriber {\r\n    uint balance; // defaults to zero\r\n    address[] subscribedTo; // defaults to empty array\r\n  }\r\n\r\n  mapping (address => Subscriber) public subscribers;\r\n  \r\n  event Subscribed(address subscriber, address subscribedTo);\r\n  event Unsubscribed(address subscriber, address subscribedTo);\r\n  event Deposited(address subscriber, uint deposit  );\r\n  event Charged(address producer, address[] subsribers, uint payout, uint service);\r\n\r\n\r\n  function Subscriptions() public {\r\n    serviceAddress = msg.sender;\r\n  }\r\n\r\n  // Deposit\r\n  // Allow subscribers to deposit ETH\r\n  // Will be used for weekly payouts\r\n  // Non-refundable\r\n  function deposit() public payable {\r\n    Subscriber storage subscriber = subscribers[msg.sender];\r\n    subscriber.balance += msg.value;\r\n    Deposited(msg.sender, msg.value);\r\n  }\r\n\r\n  // subscribe()\r\n  // Checks if sender is already subscribed to the producer. If they are\r\n  // not they will be added to the array. \r\n  \r\n  // This function execute if the sender and the subscriber are the same\r\n  function subscribe(address subscribeTo) public {\r\n    require(msg.sender != subscribeTo);\r\n    // add subscribeTo address to subscriber if it doesn't exist\r\n    // loop through subscribeTo array and subscribe\r\n    Subscriber storage subscriber = subscribers[msg.sender];\r\n    bool subscribedToExists = false;\r\n    for (uint i = 0; i < subscriber.subscribedTo.length; i++) {\r\n      if (subscriber.subscribedTo[i] == subscribeTo) {\r\n        subscribedToExists = true;\r\n        break;\r\n      }\r\n    }\r\n\r\n    if (!subscribedToExists) {\r\n      subscriber.subscribedTo.push(subscribeTo);\r\n    }\r\n\r\n    // add msg sender address to producer subcribers array\r\n    Producer storage producer = producers[subscribeTo];\r\n    bool subscriberExists = false;\r\n    for (uint j = 0; j < producer.subscribers.length; j++) {\r\n      if (producer.subscribers[i] == msg.sender) {\r\n        subscriberExists = true;\r\n        break;\r\n      }\r\n    }\r\n\r\n    if (!subscriberExists) {\r\n      producer.subscribers.push(msg.sender);\r\n    }\r\n    Subscribed(msg.sender, subscribeTo);\r\n  }\r\n\r\n  // unsubscribe()\r\n  // Checks if sender is already subscribed to the producer. If they are they \r\n  // will be removed from the array. \r\n  // This function will not execute if the sender and the subscriber are the same\r\n  function unsubscribe(address unsubscribeFrom) public {\r\n    require(msg.sender != unsubscribeFrom);\r\n\r\n    // remove unsubscribeFrom address to subscriber if it exists\r\n    Subscriber storage subscriber = subscribers[msg.sender];\r\n    for (uint i = 0; i < subscriber.subscribedTo.length; i++) {\r\n      if (subscriber.subscribedTo[i] == unsubscribeFrom) {\r\n        remove(i, subscriber.subscribedTo);\r\n        break;\r\n      }\r\n    }\r\n\r\n    // add msg sender address to producer subcribers array\r\n    Producer storage producer = producers[unsubscribeFrom];\r\n    for (uint j = 0; j < producer.subscribers.length; j++) {\r\n      if (producer.subscribers[i] == msg.sender) {\r\n        remove(i, producer.subscribers);\r\n        break;\r\n      }\r\n    }\r\n    Unsubscribed(msg.sender, unsubscribeFrom);\r\n  }\r\n\r\n  // charge()\r\n  // Allow contract to be executed by producer in order to collect weekly income.\r\n  // Slightly cumbersome user experience. Could allow automation for contract to be executed weekly on\r\n  // the producers behalf?\r\n  function charge() external {\r\n    uint payout;\r\n    uint service;\r\n\r\n    // only allow a producer to call the charge function once a week\r\n    Producer storage producer = producers[msg.sender];\r\n    require(producer.lastPayment + week <= now);\r\n\r\n    // calculate payout\r\n    for (uint i = 0; i < producer.subscribers.length; i++) {\r\n      // get subscriber \r\n      address subscriberAddress = producer.subscribers[1];\r\n      Subscriber storage subscriber = subscribers[subscriberAddress];\r\n      //check balance\r\n      if (subscriber.balance >= weeklyCharge) {\r\n        subscriber.balance -= weeklyCharge + serviceCharge;\r\n        payout += weeklyCharge;\r\n        service += serviceCharge;\r\n      } \r\n    }\r\n    // send total ETH to producer address\r\n    producer.lastPayment = now;\r\n    msg.sender.transfer(payout);\r\n    serviceAddress.transfer(serviceCharge);\r\n    Charged(msg.sender, producer.subscribers, payout, service);\r\n  }\r\n\r\n  // Below are possible functions that we need to implement. \r\n  // Investigate access to public state variables on the blockchain\r\n\r\n  // getSubscriptions(account) public constant\r\n  // Allow users to see what subscriptions they have\r\n\r\n  // getBalance(account) public constant\r\n  // Allow users to see what their balance is\r\n\r\n  // getSubscribers(account) public constant\r\n  // Allow users to see what subscribers they have\r\n\r\n  // getLastPayment(account) public constant\r\n  // Allow users to see what time they last collected payment\r\n\r\n  function remove(uint index, address[] storage array) private returns(address[]) {\r\n      if (index >= array.length) {\r\n        return;\r\n      }\r\n\r\n      for (uint i = index; i<array.length-1; i++) {\r\n          array[i] = array[i+1];\r\n      }\r\n      delete array[array.length-1];\r\n      array.length--;\r\n      return array;\r\n  }\r\n}",
  "sourcePath": "D:\\Documents\\Projects\\patrecoin\\smart-contracts\\contracts\\Subscriptions.sol",
  "compiler": {
    "name": "solc",
    "version": "0.4.19+commit.c4cbbb05.Emscripten.clang"
  },
  "schemaVersion": "1.0.1",
  "updatedAt": "2018-02-08T23:29:22.372Z"
}