{
  "contractName": "Subscriptions",
  "abi": [
    {
      "constant": true,
      "inputs": [
        {
          "name": "",
          "type": "address"
        }
      ],
      "name": "producers",
      "outputs": [
        {
          "name": "lastPayment",
          "type": "uint256"
        }
      ],
      "payable": false,
      "stateMutability": "view",
      "type": "function"
    },
    {
      "constant": false,
      "inputs": [
        {
          "name": "subscribeTo",
          "type": "address"
        }
      ],
      "name": "subscribe",
      "outputs": [],
      "payable": false,
      "stateMutability": "nonpayable",
      "type": "function"
    },
    {
      "constant": false,
      "inputs": [],
      "name": "charge",
      "outputs": [],
      "payable": false,
      "stateMutability": "nonpayable",
      "type": "function"
    },
    {
      "constant": true,
      "inputs": [
        {
          "name": "",
          "type": "address"
        }
      ],
      "name": "subscribers",
      "outputs": [
        {
          "name": "balance",
          "type": "uint256"
        }
      ],
      "payable": false,
      "stateMutability": "view",
      "type": "function"
    },
    {
      "constant": false,
      "inputs": [
        {
          "name": "unsubscribeFrom",
          "type": "address"
        }
      ],
      "name": "unsubscribe",
      "outputs": [],
      "payable": false,
      "stateMutability": "nonpayable",
      "type": "function"
    },
    {
      "constant": false,
      "inputs": [],
      "name": "deposit",
      "outputs": [],
      "payable": true,
      "stateMutability": "payable",
      "type": "function"
    },
    {
      "inputs": [],
      "payable": false,
      "stateMutability": "nonpayable",
      "type": "constructor"
    },
    {
      "anonymous": false,
      "inputs": [
        {
          "indexed": false,
          "name": "subscriber",
          "type": "address"
        },
        {
          "indexed": false,
          "name": "subscribedTo",
          "type": "address"
        }
      ],
      "name": "Subscribed",
      "type": "event"
    },
    {
      "anonymous": false,
      "inputs": [
        {
          "indexed": false,
          "name": "subscriber",
          "type": "address"
        },
        {
          "indexed": false,
          "name": "subscribedTo",
          "type": "address"
        }
      ],
      "name": "Unsubscribed",
      "type": "event"
    },
    {
      "anonymous": false,
      "inputs": [
        {
          "indexed": false,
          "name": "subscriber",
          "type": "address"
        },
        {
          "indexed": false,
          "name": "deposit",
          "type": "uint256"
        }
      ],
      "name": "Deposited",
      "type": "event"
    },
    {
      "anonymous": false,
      "inputs": [
        {
          "indexed": false,
          "name": "producer",
          "type": "address"
        },
        {
          "indexed": false,
          "name": "subsribers",
          "type": "address[]"
        },
        {
          "indexed": false,
          "name": "payout",
          "type": "uint256"
        },
        {
          "indexed": false,
          "name": "service",
          "type": "uint256"
        }
      ],
      "name": "Charged",
      "type": "event"
    }
  ],
  "bytecode": "0x60606040526009600155600160025562093a80600355341561002057600080fd5b336000806101000a81548173ffffffffffffffffffffffffffffffffffffffff021916908373ffffffffffffffffffffffffffffffffffffffff160217905550610d7e8061006f6000396000f300606060405260043610610078576000357c0100000000000000000000000000000000000000000000000000000000900463ffffffff16806326324eff1461007d57806341a7726a146100ca57806355161913146101035780635745ae28146101185780637262561c14610165578063d0e30db01461019e575b600080fd5b341561008857600080fd5b6100b4600480803573ffffffffffffffffffffffffffffffffffffffff169060200190919050506101a8565b6040518082815260200191505060405180910390f35b34156100d557600080fd5b610101600480803573ffffffffffffffffffffffffffffffffffffffff169060200190919050506101c6565b005b341561010e57600080fd5b610116610507565b005b341561012357600080fd5b61014f600480803573ffffffffffffffffffffffffffffffffffffffff169060200190919050506107e6565b6040518082815260200191505060405180910390f35b341561017057600080fd5b61019c600480803573ffffffffffffffffffffffffffffffffffffffff16906020019091905050610804565b005b6101a6610a72565b005b60046020528060005260406000206000915090508060010154905081565b600080600080600080600560003373ffffffffffffffffffffffffffffffffffffffff1673ffffffffffffffffffffffffffffffffffffffff168152602001908152602001600020955060009450600093505b85600101805490508410156102ae578673ffffffffffffffffffffffffffffffffffffffff16866001018581548110151561025057fe5b906000526020600020900160009054906101000a900473ffffffffffffffffffffffffffffffffffffffff1673ffffffffffffffffffffffffffffffffffffffff1614156102a157600194506102ae565b8380600101945050610219565b84151561031b578560010180548060010182816102cb9190610ced565b9160005260206000209001600089909190916101000a81548173ffffffffffffffffffffffffffffffffffffffff021916908373ffffffffffffffffffffffffffffffffffffffff160217905550505b600460008873ffffffffffffffffffffffffffffffffffffffff1673ffffffffffffffffffffffffffffffffffffffff168152602001908152602001600020925060009150600090505b82600001805490508110156103fa573373ffffffffffffffffffffffffffffffffffffffff16836000018581548110151561039c57fe5b906000526020600020900160009054906101000a900473ffffffffffffffffffffffffffffffffffffffff1673ffffffffffffffffffffffffffffffffffffffff1614156103ed57600191506103fa565b8080600101915050610365565b811515610467578260000180548060010182816104179190610ced565b9160005260206000209001600033909190916101000a81548173ffffffffffffffffffffffffffffffffffffffff021916908373ffffffffffffffffffffffffffffffffffffffff160217905550505b7f5af76814d21ef4a656d75bdbdb9cc3efa85af5efca9dbca0397824217d9344b73388604051808373ffffffffffffffffffffffffffffffffffffffff1673ffffffffffffffffffffffffffffffffffffffff1681526020018273ffffffffffffffffffffffffffffffffffffffff1673ffffffffffffffffffffffffffffffffffffffff1681526020019250505060405180910390a150505050505050565b600080600080600080600460003373ffffffffffffffffffffffffffffffffffffffff1673ffffffffffffffffffffffffffffffffffffffff1681526020019081526020016000209350426003548560010154011115151561056857600080fd5b600092505b83600001805490508310156106405783600001600181548110151561058e57fe5b906000526020600020900160009054906101000a900473ffffffffffffffffffffffffffffffffffffffff169150600560008373ffffffffffffffffffffffffffffffffffffffff1673ffffffffffffffffffffffffffffffffffffffff168152602001908152602001600020905060015481600001541015156106335760025460015401816000016000828254039250508190555060015486019550600254850194505b828060010193505061056d565b4284600101819055503373ffffffffffffffffffffffffffffffffffffffff166108fc879081150290604051600060405180830381858888f19350505050151561068957600080fd5b6000809054906101000a900473ffffffffffffffffffffffffffffffffffffffff1673ffffffffffffffffffffffffffffffffffffffff166108fc6002549081150290604051600060405180830381858888f1935050505015156106ec57600080fd5b7f4237c7cdeff068180ec8d9fbb4af0e35eeaf4919091de787ac1fb43fd53182f833856000018888604051808573ffffffffffffffffffffffffffffffffffffffff1673ffffffffffffffffffffffffffffffffffffffff1681526020018060200184815260200183815260200182810382528581815481526020019150805480156107cd57602002820191906000526020600020905b8160009054906101000a900473ffffffffffffffffffffffffffffffffffffffff1673ffffffffffffffffffffffffffffffffffffffff1681526020019060010190808311610783575b50509550505050505060405180910390a1505050505050565b60056020528060005260406000206000915090508060000154905081565b600080600080600560003373ffffffffffffffffffffffffffffffffffffffff1673ffffffffffffffffffffffffffffffffffffffff1681526020019081526020016000209350600092505b83600101805490508310156108ef578473ffffffffffffffffffffffffffffffffffffffff16846001018481548110151561088757fe5b906000526020600020900160009054906101000a900473ffffffffffffffffffffffffffffffffffffffff1673ffffffffffffffffffffffffffffffffffffffff1614156108e2576108dc8385600101610b35565b506108ef565b8280600101935050610850565b600460008673ffffffffffffffffffffffffffffffffffffffff1673ffffffffffffffffffffffffffffffffffffffff1681526020019081526020016000209150600090505b81600001805490508110156109d4573373ffffffffffffffffffffffffffffffffffffffff16826000018481548110151561096c57fe5b906000526020600020900160009054906101000a900473ffffffffffffffffffffffffffffffffffffffff1673ffffffffffffffffffffffffffffffffffffffff1614156109c7576109c18383600001610b35565b506109d4565b8080600101915050610935565b7f7773c30acd0762ed6b4b92a9aa2c6b3c074e29ad93b334cbed8ba807c596f13a3386604051808373ffffffffffffffffffffffffffffffffffffffff1673ffffffffffffffffffffffffffffffffffffffff1681526020018273ffffffffffffffffffffffffffffffffffffffff1673ffffffffffffffffffffffffffffffffffffffff1681526020019250505060405180910390a15050505050565b6000600560003373ffffffffffffffffffffffffffffffffffffffff1673ffffffffffffffffffffffffffffffffffffffff16815260200190815260200160002090503481600001600082825401925050819055507f2da466a7b24304f47e87fa2e1e5a81b9831ce54fec19055ce277ca2f39ba42c43334604051808373ffffffffffffffffffffffffffffffffffffffff1673ffffffffffffffffffffffffffffffffffffffff1681526020018281526020019250505060405180910390a150565b610b3d610d19565b6000828054905084101515610b5157610ce6565b8390505b6001838054905003811015610c05578260018201815481101515610b7557fe5b906000526020600020900160009054906101000a900473ffffffffffffffffffffffffffffffffffffffff168382815481101515610baf57fe5b906000526020600020900160006101000a81548173ffffffffffffffffffffffffffffffffffffffff021916908373ffffffffffffffffffffffffffffffffffffffff1602179055508080600101915050610b55565b826001848054905003815481101515610c1a57fe5b906000526020600020900160006101000a81549073ffffffffffffffffffffffffffffffffffffffff021916905582805480919060019003610c5c9190610ced565b5082805480602002602001604051908101604052809291908181526020018280548015610cde57602002820191906000526020600020905b8160009054906101000a900473ffffffffffffffffffffffffffffffffffffffff1673ffffffffffffffffffffffffffffffffffffffff1681526020019060010190808311610c94575b505050505091505b5092915050565b815481835581811511610d1457818360005260206000209182019101610d139190610d2d565b5b505050565b602060405190810160405280600081525090565b610d4f91905b80821115610d4b576000816000905550600101610d33565b5090565b905600a165627a7a7230582065e0939b29516256e0101c1c09ffed04a7b8607c48dfe4377ad4fde20d92405f0029",
  "source": "pragma solidity ^0.4.0;\r\n\r\ncontract Subscriptions {\r\n  // service address\r\n  address serviceAddress;\r\n\r\n  // ETH charge per week, in Gwei\r\n  uint weeklyCharge = 9;\r\n\r\n  // Service charge is 10%\r\n  uint serviceCharge = 1;\r\n\r\n  // week in unix time\r\n  uint week = 604800;\r\n\r\n  // need a struct of Producers\r\n  // Each producer has a public address\r\n  // and a list of their subscribers\r\n  struct Producer {\r\n    address[] subscribers;\r\n    uint lastPayment;\r\n  }\r\n\r\n  mapping (address => Producer) public producers;\r\n\r\n  // Subscriber\r\n  // Each subscriber has a balance\r\n  // and a list of people they are subscribed to\r\n  struct Subscriber {\r\n    uint balance; // defaults to zero\r\n    address[] subscribedTo; // defaults to empty array\r\n  }\r\n\r\n  mapping (address => Subscriber) public subscribers;\r\n  \r\n  event Subscribed(address subscriber, address subscribedTo);\r\n  event Unsubscribed(address subscriber, address subscribedTo);\r\n  event Deposited(address subscriber, uint deposit  );\r\n  event Charged(address producer, address[] subsribers, uint payout, uint service);\r\n\r\n\r\n  function Subscriptions() public {\r\n    serviceAddress = msg.sender;\r\n  }\r\n\r\n  // Deposit\r\n  // Allow subscribers to deposit ETH\r\n  // Will be used for weekly payouts\r\n  // Non-refundable\r\n  function deposit() public payable {\r\n    Subscriber storage subscriber = subscribers[msg.sender];\r\n    subscriber.balance += msg.value;\r\n    Deposited(msg.sender, msg.value);\r\n  }\r\n\r\n  // need an event for subscribing, unsubscribing, etc.\r\n\r\n  /** subscribe()\r\n  Checks if sender is already subscribed to the producer. If they are\r\n  not they will be added to the array. \r\n  \r\n  This function execute if the sender and the subscriber are the same\r\n\r\n  Emits a Subscribe event\r\n  */\r\n  function subscribe(address subscribeTo) public {\r\n    // add subscribeTo address to subscriber if it doesn't exist\r\n    // loop through subscribeTo array and subscribe\r\n    Subscriber storage subscriber = subscribers[msg.sender];\r\n    bool subscribedToExists = false;\r\n    for (uint i = 0; i < subscriber.subscribedTo.length; i++) {\r\n      if (subscriber.subscribedTo[i] == subscribeTo) {\r\n        subscribedToExists = true;\r\n        break;\r\n      }\r\n    }\r\n\r\n    if (!subscribedToExists) {\r\n      subscriber.subscribedTo.push(subscribeTo);\r\n    }\r\n\r\n    // add msg sender address to producer subcribers array\r\n    Producer storage producer = producers[subscribeTo];\r\n    bool subscriberExists = false;\r\n    for (uint j = 0; j < producer.subscribers.length; j++) {\r\n      if (producer.subscribers[i] == msg.sender) {\r\n        subscriberExists = true;\r\n        break;\r\n      }\r\n    }\r\n\r\n    if (!subscriberExists) {\r\n      producer.subscribers.push(msg.sender);\r\n    }\r\n    Subscribed(msg.sender, subscribeTo);\r\n  }\r\n\r\n  /** unsubscribe()\r\n  Checks if sender is already subscribed to the producer. If they are they \r\n  will be removed from the array. \r\n\r\n  This function execute if the sender and the subscriber are the same\r\n  \r\n  Emit an Unsubscribe event\r\n  */\r\n  function unsubscribe(address unsubscribeFrom) public {\r\n    // remove unsubscribeFrom address to subscriber if it exists\r\n    Subscriber storage subscriber = subscribers[msg.sender];\r\n    for (uint i = 0; i < subscriber.subscribedTo.length; i++) {\r\n      if (subscriber.subscribedTo[i] == unsubscribeFrom) {\r\n        remove(i, subscriber.subscribedTo);\r\n        break;\r\n      }\r\n    }\r\n\r\n    // add msg sender address to producer subcribers array\r\n    Producer storage producer = producers[unsubscribeFrom];\r\n    for (uint j = 0; j < producer.subscribers.length; j++) {\r\n      if (producer.subscribers[i] == msg.sender) {\r\n        remove(i, producer.subscribers);\r\n        break;\r\n      }\r\n    }\r\n    Unsubscribed(msg.sender, unsubscribeFrom);\r\n  }\r\n\r\n  /** charge()\r\n  Allow contract to be executed by producer in order to collect weekly income.\r\n  Slightly cumbersome user experience. Could allow automation for contract to be executed weekly on\r\n  the producers behalf?\r\n  */\r\n  function charge() external {\r\n    uint payout;\r\n    uint service;\r\n\r\n    // only allow a producer to call the charge function once a week\r\n    Producer storage producer = producers[msg.sender];\r\n    require(producer.lastPayment + week <= now);\r\n\r\n    // calculate payout\r\n    for (uint i = 0; i < producer.subscribers.length; i++) {\r\n      // get subscriber \r\n      address subscriberAddress = producer.subscribers[1];\r\n      Subscriber storage subscriber = subscribers[subscriberAddress];\r\n      //check balance\r\n      if (subscriber.balance >= weeklyCharge) {\r\n        subscriber.balance -= weeklyCharge + serviceCharge;\r\n        payout += weeklyCharge;\r\n        service += serviceCharge;\r\n      } \r\n    }\r\n    // send total ETH to producer address\r\n    producer.lastPayment = now;\r\n    msg.sender.transfer(payout);\r\n    serviceAddress.transfer(serviceCharge);\r\n    Charged(msg.sender, producer.subscribers, payout, service);\r\n  }\r\n\r\n  function remove(uint index, address[] storage array) private returns(address[]) {\r\n      if (index >= array.length) {\r\n        return;\r\n      }\r\n\r\n      for (uint i = index; i<array.length-1; i++) {\r\n          array[i] = array[i+1];\r\n      }\r\n      delete array[array.length-1];\r\n      array.length--;\r\n      return array;\r\n  }\r\n}",
  "sourcePath": "D:\\Documents\\Projects\\patrecoin\\app\\contracts\\Subscriptions.sol",
  "compiler": {
    "name": "solc",
    "version": "0.4.18+commit.9cf6e910.Emscripten.clang"
  },
  "schemaVersion": "1.0.1",
  "updatedAt": "2018-02-07T22:51:38.393Z"
}